:020000043200C8
:1000000000000134DD160012B5160012BD160012F4
:10001000B1160012BD160012BD160012000000003D
:10002000000000000000000000000000BD160012EB
:100030000000000000000000B11600122520001290
:10004000D5160012D5160012D5160012D5160012BC
:10005000D5160012D5160012D5160012D5160012AC
:10006000D5160012D5160012000000000000000096
:100070000000000000000000000000000000000080
:100080000000000000000000000000000000000070
:100090000000000000000000000000000000000060
:1000A0000000000000000000000000000000000050
:1000B0000000000000000000000000000000000040
:1000C0000000000000000000000000000000000030
:1000D0000000000000000000000000000000000020
:1000E0000000000000000000000000000000000010
:1000F0000000000000000000000000000000000000
:1001000000000000000000000000000000000000EF
:1001100000000000000000000000000000000000DF
:1001200000000000000000000000000000000000CF
:1001300000000000000000000000000000000000BF
:1001400000000000000000000000000000000000AF
:10015000000000000000000000000000000000009F
:10016000000000000000000000000000000000008F
:10017000000000000000000000000000000000007F
:10018000000000000000000000000000000000006F
:10019000000000000000000000000000000000005F
:1001A000000000000000000000000000000000004F
:1001B000000000000000000000000000000000003F
:1001C000000000000000000000000000000000002F
:1001D000000000000000000000000000000000001F
:1001E000000000000000000000000000000000000F
:1001F00000000000000000000000000000000000FF
:1002000000000000000000000000000000000000EE
:1002100000000000000000000000000000000000DE
:1002200000000000000000000000000000000000CE
:1002300000000000000000000000000000000000BE
:1002400000000000000000000000000000000000AE
:10025000000000000000000000000000000000009E
:10026000000000000000000000000000000000008E
:100270000348044B834202D0034B03B11847704735
:10028000300C0034300C003400000000064B0749ED
:10029000C91A891048BF0131491003D0044B0BB172
:1002A00001481847704700BF300C0034300C003450
:1002B0000000000010B5064C237843B9FFF7D8FFC3
:1002C000044B13B10448AFF300800123237010BD29
:1002D000A80C003400000000C047011208B5054B0F
:1002E0001BB105490548AFF30080BDE80840FFF7A2
:1002F000CDBF00BF00000000AC0C0034C0470112AD
:10030000A3F5803A704700BF174B002B08BF134B73
:100310009D46FFF7F5FF00218B460F461348144A10
:10032000121A12F0FDFD0E4B002B00D098470D4B1A
:10033000002B00D098470020002104000D000D483C
:10034000002802D00C48AFF3008012F0F7FD200027
:10035000290001F04DFB12F0D1FD00BF00000800A4
:1003600000000000F917001200000134A80C00344E
:10037000106D003400000000000000001E4B10B59E
:100380001B6A13F4407F07D11C4BD3F89C25002A2D
:10039000A4BF1B4AC3F80021174B1B6A13F4407F0C
:1003A00007D1164BD3F89C25002AA4BF154AC3F8E1
:1003B00004214FF47A71002009F0A8F840F20631C8
:1003C000114B124C1248134AC3E90040203420302C
:1003D000C3E9024010342438C3E90440203C2030F3
:1003E000C3E906400C4C0D481181C2E900400C4C99
:1003F0000C48C3E9084010BD0000BD520000B852CF
:1004000005150051124A0012C40C00341005B852F0
:100410001805B852EC0C0034000108090705020465
:100420003C05B8526005B85238B51D4B1B6A13F431
:10043000407F07D11B4BD3F89C25002AA4BF1A4A42
:10044000C3F80021164B1B6A13F4407F07D1154BEC
:10045000D3F89C25002AA4BF144AC3F804214FF402
:100460007A71002009F052F840F20630104B114C1E
:10047000114A9C610834DC61104C11491460114C24
:10048000196059611831104D99605460083110811C
:100490000E4AD960196224315D6059621A6138BD13
:1004A0000000BD520000B852181A0051084D001249
:1004B000C40C00343005B852EC0C003400020401C6
:1004C0001C05B852070508092005B8524005B85266
:1004D0007722014B5A6570470000A0520722014B5A
:1004E0005A6570470000A0522DE9F04F4FF0824648
:1004F000E24B2DED108B9E60E14EE2499E61E24E93
:100500004FF07E52DE61E14E01241E62E04EDFEDCF
:10051000E15ADE62E04ED9601E63E04E19615E630F
:10052000DF4E0021DE63DF4E4FF440305E649FED0E
:10053000DE4A0F26DFF80CE4DFF80C845860C3F8BD
:100540008412C3F88C12C3F89412C3F89C12C3F837
:10055000A412C3F8AC12C3ED155A83ED054AC3F8D3
:1005600028E01A64C3F88022C3F88822C3F89022D6
:10057000C3F89822C3F8A022C3F8A8221C65C3F8C8
:100580002480DE65C94E4FF0000C1E604FF002065D
:1005900083F818634FF47A76B6EE006AF7EE087ABD
:1005A000F2EE044AF5EE003A9FEDC12A0A25DFED8E
:1005B000C12A9FEDC13AF1EE04FAB2EE08FADFED7E
:1005C000BFEA9FEDBFEADFEDBFDA9FEDBFDADFEDF7
:1005D000BFCA9FEDBFCA9FEDBF7ADFEDBF6AC3F808
:1005E00024639FEDBE5AF3EE08BA9FEDBDBADFED6E
:1005F000BDAA9FEDBDAADFEDBD9A9FEDBD9ADFEDCF
:10060000BD8A9FEDBD8A4FF480469FEDBC0ADFEDA9
:10061000BC0A9FEDBC1ABC48DFEDBC1AC3EDB6FAAC
:1006200083EDB8FAC3EDB9EA83EDBCEAC3EDBFDAF6
:1006300083EDC0DAC3EDC3CA83EDC4CA83EDBB6AE0
:10064000C3F8B412C3F8BC12C3F8C412C3EDB25A53
:10065000C3EDB35AC3EDB44AC3EDBD3A83EDBE2A30
:1006600083EDCB2AC3EDD02AC3EDD27A83EDD33A02
:10067000C3F8B022C3F8B822C3F8C022C3F8D4220A
:10068000C3F830E3C3F83C03C3F8440383F8DCC287
:10069000C3F8205383EDDD6A83EDF66A9FED9C6A13
:1006A000DFF8A8B2DFF8A8A2C3F85413C3F8A81360
:1006B000C3F8AC1303F58061C3EDDEBA83EDE0BA95
:1006C000C3EDE1AA83EDE2AAC3EDED9A83EDEE9AC4
:1006D000C3EDF28A83EDF48A83EDFB7A83EDFC7A35
:1006E000C3EDD82A83EDDB3AC3EDDC3A83EDF94A5A
:1006F000C3EDDA7A83EDF55A83F828C3C3F8DCB387
:10070000C3F8E0A3A3F85863C3F85C03C3F8640319
:10071000C3F8A423C3F8B023C3F8BC03C3F8F4039D
:10072000C3F8F80383F850C3C1ED006A03F5816193
:1007300081ED000A03F21441C1ED004A03F22441A5
:100740000A6003F58561C1ED000A03F244410A60C5
:1007500003F5896181ED001A03F24C41C1ED001AE5
:1007600003F2C44181ED005A03F5996181ED006AFD
:100770009FED686A03F2CC4181ED006A9FED666AE5
:1007800003F59A6181ED006A9FED646A03F2DC4132
:10079000634F81ED006A03F59C610F6003F2E44151
:1007A000C1ED006AC3EDFF6ADFED5E6A03F25441FA
:1007B000C1ED006ADFED5C6A03F58B61C1ED006A93
:1007C000DFED5A6A03F58C610A6003F26441C1ED02
:1007D000006A03F58D61C1F8008003F58F6181ED3A
:1007E000007A9FED537A03F27C4181ED007A9FED10
:1007F000517A03F5906181ED007A9FED4F7A03F213
:100800008C4181ED007A9FED4D7A03F59361C1F83B
:1008100000E003F2EC4183F8504483F8D4C483F839
:10082000D8C483F8E8C483F8E84383F804540F601D
:1008300003F59E6181ED007ABDEC108BB6EE0C7A6B
:1008400003F2F441C1F800E003F59F6181ED007A05
:100850009FED3B7A03F2FC41DFF8F89081ED007ADE
:1008600003F5A061C1F8009003F2045103F5A263FF
:10087000C3ED007A0A60BDE8F08F00BF2C0D003494
:100880006666E63EF0A22F3A14AEC73ECDCC2C41B0
:10089000D7B35D4100606A468570D14464141D453C
:1008A000000020403333733FA69BC43B213F52F4EA
:1008B0008570D143E4CB1641527756419C5349365B
:1008C0000AD7233C0000D8429A99993F9A99993EB9
:1008D0000000B4421D431346DB0FC940378DA742C9
:1008E000CDCC4C3E0AD7A33C6F12033B5B120B3CB2
:1008F000D1A66237969E6B45378DA743DD7EBC42FD
:100900001D4393456766063F959EEB433F0AD73EDE
:10091000378D27429A99193E8FC2F53BCDCCCC3DFD
:10092000CDCC4C3D907BEC3EE4CB96419999493F30
:10093000959E6B44DD7EBC4334898445CDCCCC3C54
:10094000378D27440000E03F00006040A48C38371A
:100950009C53493764149D4470B55F4EB7EE006AEE
:1009600096ED177AD6ED147AD6ED155AF8EE476A59
:1009700096ED033AD6ED043AF8EE677A96EDB97A39
:1009800067EEA57AC6EE254A85EEA65A9FED534A34
:10099000C3EE236A37EE077A2DED048BC6ED164AB7
:1009A0009FED4F8AC6EE274AC6EE055AC6FE846AF8
:1009B00027EE277A0023012486ED1A8AC6ED127AE3
:1009C00086ED185AC6ED134AC6ED195AC6ED0E6AE1
:1009D00086EDBA7A434A06F17405F266336707EE8C
:1009E000904AB8EEE70A20EE080A11F0FFF9013448
:1009F000402CA5EC010AF2D1DFED3B8A0023012453
:100A0000C6ED5C8AC6ED7E8A384A394DC6F8742137
:100A1000C6F8FC21C6F87831C6F8003207EE904AD5
:100A2000B8EEE78A28EE288AB0EE480A11F000F9FD
:100A3000F0EE407AB0EE480AB0EE678A11F0CCF8DA
:100A4000A5EC018A0134202C85ED210AE6D196F827
:100A50008C35DA070DD4D6EDDE7A9FED267ADFED00
:100A6000266A27EE877A67EEA67A86EDC17AC6ED0A
:100A7000C27A9D0705D4D6ED0D7A77EEA77AC6ED3A
:100A8000C57A96F804340D2B00F2F381012241F26D
:100A900081719A400A4233D112F05E0F00F0EF816B
:100AA000164AD6EDCC6AB2EC017AD2ED007A37EE76
:100AB000677AC7EE267A0022C6EDC77A96ED027AEB
:100AC00086F83423062B33D00B2B01D0052B32D1E3
:100AD000022386F834332EE02C0D0034AE47813FDC
:100AE000DE40CC3C9D6D20420821043D0000F841D1
:100AF000A80E00343333333F6666A63F74110034CA
:100B0000E44A96ED027AF2EC017A92ED006AD6EDB3
:100B1000CB6A77EEC67A67EE266A77EEA77A87EE1B
:100B2000A66A86EDC76A00220C2B86F83423C9D149
:100B3000012386F83433D6EDE07A96EDE15AD6ED0E
:100B4000E25A37EE850A27EE856ABCEEC77A30EEA8
:100B5000250A26EE256A17EE103A37EEA57A67EEDB
:100B6000A57AF7EE006AE5EE077A36EE407A76EE81
:100B7000E76A27EE077AA6EEA67AC6EDE47AF1EEEA
:100B8000C77A03EB430386EDE30AF0EE660A30EE24
:100B9000460A86EDE56AC6EDDF7AA6F8383304F03A
:100BA000B3FCF0EE407ABC48B1EE400AC6EDE67AFE
:100BB00004F0F8FB96F88C25D40640F14781D6ED79
:100BC000056AD6F898335007C6F8CC3340F11B813C
:100BD00096ED027A67EE075A9FEDB05A65EEA65A77
:100BE00096EDF76AD6EDF84AC5EE257A26EE877AB5
:100BF0009FEDAB4AAB4B27EE866A1946C4EE075A07
:100C000096EDF95A67EEA47AA1EC016A25EE857A91
:100C1000C1ED007A110783ED027AD3ED042A96ED37
:100C2000037AD6ED047AD6ED065A0DD422EEA56AE3
:100C300062EE874A22EEA75AC3ED054A83ED065AB3
:100C400083ED076A83ED086A96EDDE5A9FED966A9A
:100C5000964925EE066A0B46A3EC016A83ED006A0D
:100C6000930640F1BD80D6ED164A9149F7EE003A61
:100C7000B6EE005A37EE277A91ED0B6AD6ED0E0AE2
:100C80009FED8C2A51ED016A91ED043A66EE277AC8
:100C900027EE057A26EE056A66EE826A70EEE31AA2
:100CA00091ED032A91ED054A83EE220A61EE861A40
:100CB00022EE272A87EE256AB2EE049A23EE037A03
:100CC000C1ED0C7AF0EE007A64EE042AB5EE008AEB
:100CD000C1ED0E3AC1ED113A81ED140A87EE830A97
:100CE000C3EE877A86EE247A66EE093A81EEA03A60
:100CF000B5EEC07ADFED708A62EE882AC1ED137A14
:100D0000C3EEA47AF1EE10FABEEE001AC8EE841A11
:100D1000C4EE033AF5EEC07A82EE834A81ED074ACB
:100D200025FE014AF1EE10FA37EE047A25FE015A4B
:100D3000BDEEC77A77EE857AB8EEC77AFDEEE77A30
:100D4000084627EE247AF8EEE77A66EEA56AA0EC6C
:100D5000017A67EEA47A0024C1ED026A0023DFED78
:100D6000575A81ED0D2A9FED566ADFED566A81EDE7
:100D7000120A81ED0A3AC1ED151AC1ED063AC0ED2D
:100D8000007A01F1A8024C62CC630C6407EE903A41
:100D9000B8EEE77AF0EE467AE7EE257A67EEA67AC5
:100DA0000133192BE2EC017AF0D1474BF2EE046AE1
:100DB000BDEC048B13ED1A7A1A46C6EE877A4348C7
:100DC000434942F8040B434C434D4448C3ED047A75
:100DD0009D6043F8701C43F86C1C1460D86070BDB3
:100DE0009FED3F6AD6ED164A66EE866A25EE275AD3
:100DF00091ED074A86EE856A24EE844A66EE046A1F
:100E0000C1ED086A31E7374B96ED027A1946D6ED07
:100E1000F84AF1EC017A27EE074A27EEA45A9FED33
:100E20001F3A96EDF76AD3ED033A24EE264A66EEB2
:100E3000275A25EE235AC3EE047A65EEA75A25EE0B
:100E4000275AC1ED005A83ED025ACFE6D6EDEF7A6C
:100E5000D6ED056A67EEA75A87EEA66AB6EE007A67
:100E6000C5EEA67A67EE877A86EDF06AC6EDF17A6E
:100E7000A7E6002296ED027AC6F81C2353E60D2B56
:100E8000F7D1194AF2EC017A92ED007A77EEC77A3F
:100E900011E600BFF0110034C8100034ABAA2A409C
:100EA000ABAAAA3F441100343ACD133F6811003475
:100EB00098110034A9DE1740000020425655054124
:100EC00000006144DB0FC940A4120034265F0D44CA
:100ED000CADD103E265F8D438FC2353E6EBFC842CD
:100EE000D8B3DD3F34110034181200344FF44031D0
:100EF00030B50F4B83B00F4D0F4C0093019102A9F9
:100F0000224611E90300EB69984748B14FF4C871D4
:100F100009220A4BE088D98098801A8103B030BD3D
:100F2000FFF7E2FAFFF718FD20462B6A9847EDE736
:100F3000213F52F4F80C00342C0D0034200D003405
:100F400008B500F03BFA00F013F800F053F800F099
:100F50006DF900F0B1F800F049FB00F045F800F041
:100F600045F800F0A7F8BDE8084000F05DB900BF03
:100F7000002208B511464FF4A06009F097FD002348
:100F80004FF4A0601A46194609F02EFC00224FF4D7
:100F9000A060114609F03AFD012200214FF4A06043
:100FA00009F084FD012300211A464FF4A06009F0E6
:100FB0001BFC012200214FF4A06009F027FD022252
:100FC00000214FF4A06009F071FD022200210323EB
:100FD0004FF4A06009F008FCBDE80840022200219F
:100FE0004FF4A06009F012BD704700BF704700BF0A
:100FF000FEE700BF10B52D4808F08AF8002853D14D
:101000000446012008F0B0FF022008F0ADFF2246A0
:1010100021464FF4A06009F091FD254B2246C3F80C
:101020000048214640F2015009F088FD2146012286
:1010300040F2025009F082FD2246214640F204505F
:1010400009F07CFD2246214640F2055009F076FD6C
:101050002246214640F2065009F070FD2246214604
:1010600040F2075009F06AFD224621464FF4A16084
:1010700009F064FD2246214640F2095009F05EFD68
:101080002246214640F20A5009F058FD214602222C
:1010900040F20B5009F052FD22462146BDE81040B7
:1010A00040F2145009F04ABDFFF7A2FFF0380112D8
:1010B0000000A952704700BF70B5404D404C02215E
:1010C0002846404A07F014FF032128463E4A07F00D
:1010D0000FFF002120463D4A07F00AFF012120466C
:1010E0003B4A07F005FF022120463A4A07F000FF7D
:1010F00003212046384A07F0FBFE04212046374AE8
:1011000007F0F6FE05212046354A07F0F1FE354E80
:1011100006212046344A07F0EBFE07212046334AD9
:1011200007F0E6FE04213046314A07F0E1FE0521D2
:101130003046304A05F5607507F0DAFE0621304684
:101140002D4A07F0D5FE002128462C4A07F0D0FE94
:10115000022128462A4A07F0CBFE03212846294AC5
:1011600007F0C6FE04212846274A04F5207407F03C
:10117000BFFE05212846254A07F0BAFE0021204679
:10118000234A07F0B5FE01212046224A07F0B0FEAF
:1011900002212046204A07F0ABFE032120461F4AC9
:1011A00007F0A6FE042120461D4A07F0A1FE2046B6
:1011B000BDE8704005211B4A07F09ABE80004152ED
:1011C000000241522C3A0112643A01125C3C0112B5
:1011D000943C0112CC3C0112043D01123C3D011231
:1011E000743D0112800341529C3A0112243C0112C9
:1011F000443B01127C3B0112B43B0112EC3B011257
:101200008C3E0112C43E0112FC3E0112343F011219
:10121000AC3D0112E43D01121C3E0112543E01128C
:101220000C3B0112D43A0112704700BF002310B5E5
:101230001A464FF0804170200FF082FB002349498D
:101240001A4671200FF07CFB002347491A4640F6EE
:1012500021200FF075FB002344491A4640F6282050
:101260000FF06EFB002342491A4640F62A200FF089
:1012700067FB00233F491A4640F635200FF060FB1C
:1012800000233D491A4640F636200FF059FB002353
:101290003A491A4640F637200FF052FB00233849EE
:1012A0001A4640F64B500FF04BFB002335491A46C7
:1012B00040F64C500FF044FB002333491A4640F6E9
:1012C00009600FF03DFB002330491A4640F60A60E2
:1012D0000FF036FB00232E491A4640F23D200FF056
:1012E0002FFB00232B491A4640F245200FF028FB24
:1012F000002329491A4640F246200FF021FB002323
:1013000026491A4640F247200FF01AFB00232449D1
:101310001A464FF412700FF013FB002321491A46AE
:1013200040F249200FF00CFB00231F491A4640F2FF
:101330004A200FF005FB00231C491A4640F24D20BD
:101340000FF0FEFA00231A491A4640F24E200FF021
:10135000F7FABDE81040002340F24F201A46154925
:101360000FF0EEBA01000040070A0040060A0040F4
:10137000050A0040040A0040080A0040090A00402B
:10138000000D0040010D0040000E0040010E004025
:101390002B0200400F0200401102004013020040E7
:1013A0002A02004028020040290200400E020040AC
:1013B0001002004012020040FEE700BF10B5B42149
:1013C00082B000200EF032F80FF0EAFA0EF072F858
:1013D0000DF0C4FF002800F0CF8000240EF07EFA4C
:1013E00001200EF09BF80DF0A5FA23462246214677
:1013F0007648009407F044FE2346224601217348B4
:10140000009407F03DFE642332221221704809F057
:10141000B7FC704B984200F0D58040F6B8300DF024
:10142000B5F96D4B984200F0C980002009F0F2FB3D
:101430000DF0EAF9062101200DF0F0F90621022055
:101440000DF0ECF9062103200DF0E8F90621042047
:101450000DF0E4F9062105200DF0E0F90021062049
:101460000DF0DCF901200DF09DFD01205B490DF030
:10147000B9FD002840F09E8042F2107101200DF06D
:101480007DFE002840F0928002200DF08BFD0220AE
:1014900053490DF0A7FD002840F0848042F21071FE
:1014A00002200DF06BFE002878D10121084609F0DA
:1014B0000DFC0021012009F01FFC01200DF0CAFCE9
:1014C0000021022009F002FC0021022009F014FC96
:1014D00002200DF0BFFC0221032009F0F7FB0021E0
:1014E000032009F009FC03200DF0B4FC02210420C4
:1014F00009F0ECFB0021042009F0FEFB04200DF0B4
:10150000A9FC0521084609F0E1FB0021052009F0AE
:10151000F3FB05200DF09EFC0621084609F0D6FBE2
:101520000021062009F0E8FB06200DF093FC0120C5
:1015300009F064FB09F0F8FB012009F015FC022119
:1015400000200DF06BF927480DF02AFA10BB264851
:101550000DF07AFAD0B90121002009F0B7FB002183
:10156000084609F0C9FBB42100200DF05FFF02B06E
:10157000BDE8104000F000BA0DF0E2FE09F0DEFB1D
:1015800009F0D2FB012009F0EFFB26E70420FFF76A
:1015900013FFE0E70420FFF70FFFD8E70320FFF772
:1015A0000BFF82E70320FFF707FF77E70320FFF732
:1015B00003FF69E70320FFF7FFFE5DE70120FFF768
:1015C000FBFE32E70120FFF7F7FE26E780004152DD
:1015D0000024F40001004A0002004A006C030034B9
:1015E000CC0300346C3F0112400D030001480DF0A4
:1015F00005B900BF0024F40008B5FFF7A1FC00F016
:1016000009F800B108BDBDE8084000F00DB800BF02
:10161000704700BF08B5012102480DF035FF0020DA
:1016200008BD00BFD003003410B5002482B0684666
:1016300001A9019400F034F8019B8BB1009B18685C
:1016400030B90DE0019BA3420AD9009B53F8240056
:101650000EF0EAF801340028F4D1034802B010BDBE
:10166000002002B010BD00BF00000206042911D006
:1016700008D908290CD108B5012107480DF004FF4D
:10168000002008BD01390129044898BF0020704797
:101690000248704700207047D0030034FF0042002A
:1016A0000223024A02600B60704700BFD803003477
:1016B000FEE700BF0ABEFEE7704700BFEFF31480ED
:1016C00010F0020F0CBFEFF30880EFF3098000F079
:1016D0008FB8704701BEFEE7704700BF08B53A4BB0
:1016E0001A6822F000421A601A6842F000421A603A
:1016F000EFF3108272B6354CD4F8883043F470039F
:10170000C4F88830BFF34F8FBFF36F8F82F3108818
:10171000EFF3108172B62E4AD2F8883043F470038A
:10172000C2F88830BFF34F8FBFF36F8F81F31088FB
:10173000284B4FF41C721846274911F02DFCA0606D
:10174000BFF35F8F254B83F30A8800F0B5F8244C74
:10175000244BA34238BF9C4614D2DCF808306BB14E
:10176000DCE9001200230439043A51F8040F013374
:1017700042F8040FDCF808008342F6D30CF10C0C9D
:10178000A445EAD31848194B98421BD2002403F110
:10179000FF3CACEB000C00F110032CF0070C083000
:1017A0009C4450F8043C53B1002350F8082C043AF0
:1017B00042F8044F50F8041C01338B42F8D3083030
:1017C0008445EED1FEF7A0FD0030105200ED00E0A0
:1017D00000ED02E0000000340000001200F00034D0
:1017E000E4470112CC470112E4470112EC47011211
:1017F0000DF0D0BD704700BF08B5FFF7FBFF08BD77
:101800000021012008B509F03DFA0F280AD0012176
:101810000022084609F00CFA4FF0FF3200210120A7
:1018200009F006FA0021022009F02CFA03280AD058
:1018300000220121022009F0FBF94FF0FF320021C4
:10184000022009F0F5F90021032009F01BFA3F28D6
:101850000AD000220121032009F0EAF94FF0FF32FB
:101860000021032009F0E4F90021042009F00AFA1C
:1018700003280AD000220121042009F0D9F94FF0F1
:10188000FF320021042009F0D3F90021052009F0DE
:10189000F9F9012800D108BD00220121052009F035
:1018A000C7F9BDE808404FF0FF320021052009F0DC
:1018B000BFB900BF00BF704738B50021022009F052
:1018C00005FA0021022009F017FA02200DF0C2FAF1
:1018D0000021032009F0FAF90021032009F00CFA95
:1018E00003200DF0B7FA0021042009F0EFF90021E0
:1018F000042009F001FA04200DF0ACFAFFF780FF94
:10190000FFF7D8FF00200DF00FFA0346114C124AE2
:101910000120236013600DF007FA21680F4C01F5D8
:10192000742303F23F23A4FB03430D4D0D4C01F23E
:10193000E732A5FB025220600B489B0C03700B4C56
:101940000B4B920900201A6021600DF0EDF9094B54
:10195000186038BD180400342004003483DE1B43B3
:10196000D34D6210240400343004003428040034C1
:101970002C0400341C04003438B500200DF0D4F9D8
:101980000346124C124A0120236013600DF0CCF97B
:101990002168104C01F5742303F23F23A4FB034399
:1019A0000D4D0E4C01F2E732A5FB025220600C48AF
:1019B0009B0C03700B4C0C4B920900201A602160A9
:1019C0000DF0B2F9094B186038BD00BF180400349F
:1019D0002004003483DE1B43D34D62102404003402
:1019E00030040034280400342C0400341C04003477
:1019F00008B5FFF701FE01F027FF05F0FFFC00F03E
:101A0000E5FA00F00DFB62B600F0F4F8FCE700BF69
:101A10002DE9F0411F4D2C78032C38D80368B3B35F
:101A20000369A3B390F821308BB390F8203073B3DF
:101A30008446194F04EB840304EB430307EB830E46
:101A400000F120087646DCF80000DCF80410DCF831
:101A50000820DCF80C300CF1100CC4450FC60EF158
:101A6000100EEFD12C22734602FB047704F1010E15
:101A70000024DCF80000DCF80410DCF8082007C3C0
:101A8000204685F800E087F82240BDE8F0814FF05D
:101A9000FF30FAE7E0140034E41400342DE9F84F85
:101AA000DFF8B8A09AF80030002B3BD04FF00008C8
:101AB0004FF02C094746264E09FB07F5715935446E
:101AC000E1B10024224607EB870307EB430B5A449E
:101AD000043256F8222095F822C095F824000134EB
:101AE0000CFB0020E4B295F8202011F055FA0BEB26
:101AF000040256F8221022460029E8D109FB0762A9
:101B000092F8223092F821100133DBB2994282F828
:101B1000223012D09AF8003008F101085FFA88F7F5
:101B2000BB42C9D84FF0807001220A4B0A49C1F864
:101B300088011A671B6FBDE8F88F936A03B1984755
:101B40004FF0000309FB076787F82230E2E700BF88
:101B5000E41400340000A25200E100E0E01400347C
:101B600008B500F0D1F8C020074B084A83F85803A5
:101B700007499268C2F8A011BFF34F8F4FF08072EF
:101B80009A60002008BD00BF00E100E000ED00E029
:101B90009D1A001208B500F0D1F8002008BD00BF62
:101BA00008B500F025F9002008BD00BF104B1B78D8
:101BB000D3B130B543F2421240F60D2304460D4630
:101BC00083B002216846ADF80020ADF8043000F083
:101BD000A1F92946204600F09DF9022101A800F054
:101BE00099F9002003B030BD4FF0FF30704700BFBF
:101BF000D415003438B5384C384D206801212844BC
:101C000000F0BAF990B92368581C012803F1FF329B
:101C10002060F3D9A95C0D29F0D1EB5C0A2BEDD142
:101C2000284410F8013C0A2B08D038BD2068012850
:101C3000FBD9821EAB5C0D2BF2D038BD0023AB5418
:101C400027492A688A420AD02649244811F09AF97D
:101C500088B90122244B1A700023236038BD234A1F
:101C600069689142F0D1204A4FF495712048137071
:101C700000F050F9F0E71F4B2A689A4219D01D4B2B
:101C80002A689A42E8D103F17C436A6803F570033D
:101C900003F2ED439A42DFD1174A184B12689A4279
:101CA000DAD10022104B042115481A7000F032F9E5
:101CB000D2E703F17C436A6803F5700303F2ED4356
:101CC0009A42DCD10C4B0F4A19689142D7D19B88BC
:101CD000312BD4D1E5E700BFD8150034941500347A
:101CE000636F6E66883F0112D415003469673F0048
:101CF000B83F0112756E73759C15003469626500FA
:101D0000E44001126962652C002210B5094C1146AD
:101D100040F20C5008F012FF20464FF4007104F519
:101D20000034054A0DF08AFE236843F00043236027
:101D300010BD00BF0000A052EC4001121022014B68
:101D40001A6470470000A25208B50449044808F01C
:101D5000BFFB0122034BC3F8842108BDF01B0034F4
:101D60000000855200E100E081072DE9F04113D425
:101D7000820602D501BEBDE8F0814307FBD50122F2
:101D80001649104600F06EF9BDE8F0410122144BEF
:101D90001249144808F0FEBA0025134F114E3D7049
:101DA0002846D6F8084200F01BFAC4F30804C4F130
:101DB0000804844228BF0446002CDCD001230B49D0
:101DC000A2B228463B7000F0ABF9224630460749E4
:101DD00008F0C8F98442CDD1CDE700BFE01B003444
:101DE000F01B003400008552DC1B0034E81B00347B
:101DF000F0B5102783B0002202214FF4806008F074
:101E000055FE0B230022022100974FF4806008F05A
:101E10003DFD314C314D002202214FF4806008F02D
:101E2000F5FD0022022140F2024008F08FFD2A4613
:101E300020462B4908F0D8F92A4B4FF480622A49F2
:101E400000206B6300F0F6F84FF400722749012080
:101E500000F0F0F82368264E43F000432360012190
:101E60003046244A07F044F802213046224A07F05F
:101E70003FF82249224A0B6F23F4F81343F48013EE
:101E80000B670B6F23F4F85343F480530B67002167
:101E9000D2F8C43023F4706343F40063C2F8C43052
:101EA000D2F8C43023F0F00343F06003C2F8C4302A
:101EB000144B154A83F8201392681449C2F8C010D5
:101EC000BFF34F8F01225A602B462046104903B0C2
:101ED000BDE8F04008F05EBA00008552F01B003407
:101EE000C8410112691D0012DC170034DC150034F2
:101EF00080034152904101125841011200004052AA
:101F00000003415200E100E000ED00E0491D001235
:101F1000E01B0034F8B50346144E0A46002019466B
:101F200000F0A0F835780DB10020F8BD104F28461C
:101F3000D7F8084200F054F9C4F30804C4F10804C7
:101F4000844228BF0446002CEED001230949A2B2E6
:101F50002846337000F0E4F822463846054908F078
:101F600001F98442E0D001BEDEE700BFDC1B003493
:101F700000008552E81B003438B5054601200C46A8
:101F800000F02EF9A04206D322462946012000F097
:101F9000C7F8002038BD4FF0FF3038BD094B0A4A62
:101FA00003F1A00C186859680833634502F1080270
:101FB00042F8080C42F8041CF4D1A0210248FFF7B3
:101FC000F5BD00BF281C0034C81C003410B58CB00F
:101FD0002022002103A810F0A3FF4FF0080C41F2CB
:101FE00004410C4A0C4BA2F15C0001920B4A1C1DEF
:101FF000029001A805930B928DF828C0ADF824102B
:102000000694FFF705FDFFF7ABFDFFF7C9FD0020C4
:102010000CB010BD88240034281C00349D1F001211
:10202000FFF7B8BD024A136801331360704700BF61
:10203000681D003403280FD810B4094C00EB400091
:1020400044F82010002104EB80039A8008465DF8D4
:10205000044BD980198170474FF0FF30704700BFA3
:102060006C1D00342DE9F84F14462C4D00EB400256
:1020700005EB82021389B2F806C00E469C4528BFC4
:1020800092884FEA400728BF9B18A3EB0C039BB232
:102090009C423ED2D4B3074405EB870ABAF80490B9
:1020A00004EB0C081FFA88F8B8FBF9F010F0FF0BEE
:1020B0004FEA87071DD0BBF1010F2AD1E8596044D0
:1020C000A9EB0C0C1FFA8CF4224610F065FFA8EB6C
:1020D000090292B2E859311910F05EFFBAF80430E3
:1020E0000020B8FBF3F203FB1288AAF80680BDE8D3
:1020F000F88FE8592246604410F04EFFBAF80630D7
:1021000058462344AAF80630BDE8F88F2046BDE8BB
:10211000F88F01BE4FF0FF30E9E700BF6C1D0034BF
:102120002DE9F84F14462D4E00EB400206EB8202DB
:10213000D388B2F808C00D46634538BF92884FEA8D
:10214000400738BF9B18A3EB0C039BB29C4241D8BD
:10215000002C3CD0074406EB870ABAF8049004EB45
:102160000C081FFA88F8B8FBF9F010F0FF0B4FEAE3
:1021700087071ED0BBF1010F2CD1F15928466144CD
:10218000A9EB0C0C1FFA8CF4224610F005FFA8EB0B
:10219000090292B2F159281910F0FEFEBAF8043083
:1021A0000020B8FBF3F203FB1288AAF80880BDE810
:1021B000F88FF15928462246614410F0EDFEBAF836
:1021C000083058462344AAF80830BDE8F88F204666
:1021D000BDE8F88F4FF0FF30E9E700BF6C1D003419
:1021E000074B00EB400003EB8000C3880289934259
:1021F00037BF8188981A5818801A80B2704700BF7C
:102200006C1D0034000000000230800803D0013053
:102210000238FCD100BF00BF7047EFF3108072B6E8
:10222000704780F31088704701207047004870475E
:1022300000001606004870470000160608B506F0B4
:10224000FBFC08B1007E08BD012008BD08B506F002
:10225000F3FC003818BF012008BD00BF08B50022FC
:1022600006F0EAFC00B1407E08BD00BF08B50022C0
:1022700006F0E2FC20B10378022B0CBF4069006934
:1022800008BD00BF08B5002206F0D6FC00B14069C9
:1022900008BD00BF94461A46634606F021BC00BF45
:1022A000F8B51546002207460C4606F0C5FCC8B135
:1022B000D0E904630278022A08BF1E46B5FBF6F394
:1022C00006FB135353B92544A54209D92146384684
:1022D00006F03EFC34440028F6D0F8BD0248F8BDB4
:1022E0000020F8BDFFDE00BF020016062DE9F04118
:1022F00015460022064698460C4606F09DFCD8B1CD
:102300004769B5FBF7F307FB13537BB92544A8EBEB
:102310000408A54208EB04020BD92146304606F01A
:102320004BFC3C440028F4D0BDE8F0810348BDE8F4
:10233000F0810020BDE8F081FFDE00BF020016063C
:1023400000B30346104A10B4002908BF11460F4CD1
:102350000F4A1048C3E905420F4A104CC3E907026F
:102360000F4A10485A60104A5C62C3E902020F4CDF
:102370000F48104A1C6198625DF8044B0020DA6235
:10238000196070470C4870479C1D0034952200125C
:10239000ED220012A12200122D220012352200127D
:1023A00029220012852200126D2200125D220012E5
:1023B0004D2200123D22001203001606F0B54B7BA1
:1023C0000C460546ADF5037D002B3ED14968628879
:1023D00091423BD9B0FBF1F601FB1656E069AE1B0A
:1023E0000A464769314602AB0068B84763686288AD
:1023F000B5FBF3F003FB105002AB20F003002549BE
:102400001844019210F0C8FDE3693146019ADD6A73
:102410001868A847E37B6288616893B18A4238BF35
:102420000A4638B1E3693146DD6918680192A84768
:10243000019A08BBE0693146846902AB0068A04795
:10244000D0B900200DF5037DF0BD4A88E369294627
:10245000DE6A1868B047E37B62886168002BF0D0C1
:102460008A4238BF0A4658B1E3692946DE691868CE
:102470000192B047019A18B107480DF5037DF0BDF0
:10248000E06929468469034B0068A0470028D8D03A
:10249000F2E700BFD01D003403003E092DE9F04FE4
:1024A000D0F810B0467B83B0C0F818B0002E40F0D2
:1024B000E7800588037B804603FB05F5002D00F0CF
:1024C000E2804488DA464FEA9409DC463746AE4655
:1024D0004FEA8909043CCDF804B004E0731C9E4522
:1024E000CC445CD01E46DCF80450BD42F6D96046B0
:1024F00050F801BB002C00F0C8800021FF230A46E1
:10250000825C0131534013F0800F4FEA430318BF40
:1025100083F03103DBB213F0800F4FEA430318BF9F
:1025200083F03103DBB213F0800F4FEA430318BF8F
:1025300083F03103DBB213F0800F4FEA430318BF7F
:1025400083F03103DBB213F0800F4FEA430318BF6F
:1025500083F03103DBB213F0800F4FEA430318BF5F
:1025600083F03103DBB213F0800F4FEA430318BF4F
:1025700083F03103DBB213F0800F89B24FEA4303DB
:1025800018BF83F031038C420A46DBB2B8D19B45B9
:1025900004BF2F46E246731C9E45CC44A2D1DDF811
:1025A00004B098F80E3009FB0EB5002B66D0002061
:1025B000B44605E060454D4400F101035ED0184685
:1025C0006E68BE42F6D9294651F801EB002C62D064
:1025D00000224FF0FF0B1346CB5C01328BEA030362
:1025E00013F0800F4FEA430318BF83F03103DBB2CF
:1025F00013F0800F4FEA430318BF83F03103DBB2BF
:1026000013F0800F4FEA430318BF83F03103DBB2AE
:1026100013F0800F4FEA430318BF83F03103DBB29E
:1026200013F0800F4FEA430318BF83F03103DBB28E
:1026300013F0800F4FEA430318BF83F03103DBB27E
:1026400013F0800F4FEA430318BF83F03103DBB26E
:1026500013F0800F92B24FEA430318BF83F03103A7
:10266000A2425FFA83FB1346B6D1DE4504BFAA46F9
:10267000374660454D4400F10103A0D1C8F818A0C9
:1026800003B0BDE8F08FDA46F8E7FF239B4504BFAF
:102690002F46E2467FE74FF0FF0BE6E72DE9F041DA
:1026A0004A7B05461AB100232B60BDE8F0818E6994
:1026B000B1F802C03046BCF1040488464FF0FF0375
:1026C00050F8017B49D0964610F80EE0013283EABB
:1026D0000E0313F0800F4FEA430318BF83F031035A
:1026E000DBB213F0800F4FEA430318BF83F03103CE
:1026F000DBB213F0800F4FEA430318BF83F03103BE
:10270000DBB213F0800F4FEA430318BF83F03103AD
:10271000DBB213F0800F4FEA430318BF83F031039D
:10272000DBB213F0800F4FEA430318BF83F031038D
:10273000DBB213F0800F4FEA430318BF83F031037D
:10274000DBB213F0800F92B24FEA430318BF83F05D
:10275000310394429646DBB2B6D19F4200F0BE8070
:1027600098F80E70002F00F0BD8098F80C20B8F893
:1027700000304FEA9C0C02FB03F30CFB03F306EB67
:10278000830056F82370421C002C00F002810026C2
:10279000FF23B44612F80CC0013683EA0C0313F091
:1027A000800F4FEA430318BF83F03103DBB213F00D
:1027B000800F4FEA430318BF83F03103DBB213F0FD
:1027C000800F4FEA430318BF83F03103DBB213F0ED
:1027D000800F4FEA430318BF83F03103DBB213F0DD
:1027E000800F4FEA430318BF83F03103DBB213F0CD
:1027F000800F4FEA430318BF83F03103DBB213F0BD
:10280000800F4FEA430318BF83F03103DBB213F0AC
:10281000800FB6B24FEA430318BF83F03103B442CE
:10282000B446DBB2B6D19F4254D04046FFF736FEE5
:102830000022D8F81800FF230146174651F8014B33
:10284000CF5D01327B4013F0800F4FEA430318BF86
:1028500083F03103DBB213F0800F4FEA430318BF5C
:1028600083F03103DBB213F0800F4FEA430318BF4C
:1028700083F03103DBB213F0800F4FEA430318BF3C
:1028800083F03103DBB213F0800F4FEA430318BF2C
:1028900083F03103DBB213F0800F4FEA430318BF1C
:1028A00083F03103DBB213F0800F4FEA430318BF0C
:1028B00083F03103DBB213F0800F92B24FEA43038F
:1028C00018BF83F03103B2421746DBB2B8D1A3423E
:1028D0007FF4E9AE43682B60BDE8F08173682B603C
:1028E000BDE8F0814046FFF7D9FDD8F81800014651
:1028F00051F8016B002C56D03A46FF23CF5D0132D0
:102900007B4013F0800F4FEA430318BF83F031037D
:10291000DBB213F0800F4FEA430318BF83F031039B
:10292000DBB213F0800F4FEA430318BF83F031038B
:10293000DBB213F0800F4FEA430318BF83F031037B
:10294000DBB213F0800F4FEA430318BF83F031036B
:10295000DBB213F0800F4FEA430318BF83F031035B
:10296000DBB213F0800F4FEA430318BF83F031034B
:10297000DBB213F0800F92B24FEA430318BF83F02B
:10298000310394421746DBB2B8D19E427FF48BAE3E
:10299000A0E7FF2F9ED04046FFF780FDD8F8180033
:1029A000FF23046893E7FF23EFE700BF2DE9F04F13
:1029B000544F06460C4683B000213846FFF7C0FC52
:1029C000002840F08480F379D6F8008096F804A0BF
:1029D00096F805B096F806900193B668002C00F0C2
:1029E0008880014620220546204610F099FA84F896
:1029F0000DA0FA6831463868E7612661C4F808809E
:102A00009047E2696060976810682169B847627B07
:102A1000002A66D1A16867680139B1FBF0F2013282
:102A200012FB00F292B2BA4228BF3A467F2A94BF04
:102A30007F2202F1FF32B2FBF0F21FFA80FC01327A
:102A400012FB0CF292B26280C2F34F00B1FBF0F1C4
:102A50000131A08289B21038E0822180002E3BD063
:102A6000B8F1000F38D0019F4AEA09003843C0B2DC
:102A7000012831D80BF1FF30C0B209282CD809F158
:102A80000100C0B210FB0BF001FB02F23146CAF1AB
:102A9000010606FB00AAE06902FB0AF2866A0068EA
:102AA000B047C8B12FB3627B2046002A1CBF4FF04D
:102AB00000094FF0010B012284F80E9084F80CB04D
:102AC000E273FFF7EBFC284603B0BDE8F08F00256A
:102AD000284603B0BDE8F08F0B4D284603B0BDE893
:102AE000F08F80B2012A608008D1A16802460139C6
:102AF000ACE7064D284603B0BDE8F08FA16802465A
:102B00000139A1E7A01D003402003E0900003E0982
:102B10002DE9F04F8DB0CDE906010392D2B11D46EB
:102B20009B68074610189842089013D80B4689B145
:102B30006E7BAEB12969EC690F443946206864693F
:102B4000A0470028C54B08BF0346009300980DB06E
:102B5000BDE8F08FC24B009300980DB0BDE8F08F38
:102B600018462B8888463146099310F0D9F9294632
:102B70000BA8FFF793FD089BAF8A0699013BB1FBB9
:102B8000F7F2B3FBF7F3B5F802909B1A2C690593A3
:102B9000013302FB0944009300F08F823246009615
:102BA0000E46297BBA460491049BCDF80480012B84
:102BB000029200F203812146B6FBFAF3029A0AFB65
:102BC000136B059B934240F25181039AABEB0A03CE
:102BD0001A44B9F1040CD4F800800392AAEB0B0755
:102BE00001F1010E00F04D810020FF2302461EF886
:102BF00002200130534013F0800F4FEA430318BF07
:102C000083F03103DBB213F0800F4FEA430318BFA8
:102C100083F03103DBB213F0800F4FEA430318BF98
:102C200083F03103DBB213F0800F4FEA430318BF88
:102C300083F03103DBB213F0800F4FEA430318BF78
:102C400083F03103DBB213F0800F4FEA430318BF68
:102C500083F03103DBB213F0800F4FEA430318BF58
:102C600083F03103DBB213F0800F80B24FEA4303ED
:102C700018BF83F0310384450246DBB2B7D19845D3
:102C800000F0D780AB7B002B00F0D6802B88049A15
:102C90004FEA990902FB03F309FB03F304EB8304F6
:102CA0002146D4F8008004F1010EBCF1000F00F0C1
:102CB00002820020FF2302461EF80220013053400A
:102CC00013F0800F4FEA430318BF83F03103DBB2E8
:102CD00013F0800F4FEA430318BF83F03103DBB2D8
:102CE00013F0800F4FEA430318BF83F03103DBB2C8
:102CF00013F0800F4FEA430318BF83F03103DBB2B8
:102D000013F0800F4FEA430318BF83F03103DBB2A7
:102D100013F0800F4FEA430318BF83F03103DBB297
:102D200013F0800F4FEA430318BF83F03103DBB287
:102D300013F0800F80B24FEA430318BF83F03103D2
:102D400084450246DBB2B7D1984575D1DFF81881CA
:102D5000E869D344D0F814903A46019B006859447E
:102D6000C847287B012804900CD86B882A882969D9
:102D700003FB02F29B0804EB830400FB02139C425A
:102D800028BF0C46019B3E443B440193354B98457C
:102D900079D0009A05991346002A08BF4346029A43
:102DA0000093914202F1010375D00293049BB5F8A0
:102DB0000290012BB5F814A07FF6FDAE2F8828698C
:102DC00009FB07FEAC690EEB0003A34289BF049B1D
:102DD000A4EB0E0403F1FF330EFB03442146002F46
:102DE0003FF4EAAE049B4FEA990800220EFB030E63
:102DF0004FEA88084FEA590C0FE0B3FBF9F3B3FB35
:102E0000F7FB07FB1B330CFB03F39E420CEB030B9E
:102E10000CD20132BA423FF4CFAE4444A64521461B
:102E2000A4EB0003E9D8E34604460146B345F0D9D4
:102E3000C2E64FF000088BE73A460021019810F0F7
:102E40006FF86368002B40F0AB80D4F80080054B2E
:102E5000B8F1000F18BF984683E700BF02003E0993
:102E600000003E0901003E0904003E090023B9F1BB
:102E7000040C039FD4F80080039301F1010E7FF44A
:102E8000B3AEFF23FBE6029A05998E4B9142009365
:102E900002F1010389D104990129AC690BD96A882F
:102EA0002B8802FB03F32A691A44A24240F20181F3
:102EB0004A1E03FB0244099B002B3FF44DAE98468B
:102EC0000026B5F802E0B5F800902A6909FB0EF378
:102ED00001FB03234FEA9E0004EB8004A342A246B9
:102EE0009CBF1446A246BEF10407D4F800B00AF114
:102EF000010C00F0D8800020FF2302461CF80220BD
:102F00000130534013F0800F4FEA430318BF83F0A2
:102F10003103DBB213F0800F4FEA430318BF83F095
:102F20003103DBB213F0800F4FEA430318BF83F085
:102F30003103DBB213F0800F4FEA430318BF83F075
:102F40003103DBB213F0800F4FEA430318BF83F065
:102F50003103DBB213F0800F4FEA430318BF83F055
:102F60003103DBB213F0800F4FEA430318BF83F045
:102F70003103DBB213F0800F80B24FEA430318BF76
:102F800083F0310387420246DBB2B7D19B450AD0BA
:102F9000AB7B53BB0136B0453FF4DEAD297B90E7F8
:102FA000DFF82081DDE620468768089BBB42F1D927
:102FB000C268069B3A449342ECD2BB4275D20021D0
:102FC0000798C31A3B4408980AF1100A824228BFA6
:102FD000024606985144B84228BF121AE86938BF21
:102FE000D21B47690068B847D4E701FB09F30EFB21
:102FF00003F323F0030020449B10824654F823E09F
:1030000000F1010C002F5AD00021FF230A461CF8C2
:1030100002200131534013F0800F4FEA430318BFE1
:1030200083F03103DBB213F0800F4FEA430318BF84
:1030300083F03103DBB213F0800F4FEA430318BF74
:1030400083F03103DBB213F0800F4FEA430318BF64
:1030500083F03103DBB213F0800F4FEA430318BF54
:1030600083F03103DBB213F0800F4FEA430318BF44
:1030700083F03103DBB213F0800F4FEA430318BF34
:1030800083F03103DBB213F0800F89B24FEA4303C0
:1030900018BF83F031038F420A46DBB2B7D19E4599
:1030A0007FF478AF80E7FF2370E71946079BC91BC1
:1030B00089E7E41AFFE6FF2346E6297BECE6FF23D7
:1030C000EDE700BF01003E092DE9F04F93B0CDE9D7
:1030D0000520002A00F073819A4617461318DAF883
:1030E0000820934200F26B81002900F068819AF871
:1030F0000D30002B40F068810993BAF816307A1E23
:10310000B2FBF3F3079111A851460A93FFF7C6FAF1
:10311000119B01330C93DAF818300193CC4B013B2F
:103120000393BAF80220BAF80030DAF8101002FB64
:1031300003F39AF80C00019C00FB0313900804EBC6
:1031400080008342039E0C9B099C019003EB040BBF
:1031500098BF0191054698BF0D4630460021CDF835
:1031600044B00FF0DDFE069A05990A98B260BAF8ED
:103170001620C6F804B0A04208BF0A460799B54811
:10318000F2600FF009FF9AF80C90BAF80210B9F14A
:10319000010F4FEAD10340F25382BAF80070DAF817
:1031A000102001FB07F73A44AA4286BF09F1FF321B
:1031B00007FB0257EF1BBE460C1FDEF800C007F1ED
:1031C000010700F047820026FF223046385C0136B6
:1031D000424012F0800F4FEA420218BF82F03102E3
:1031E000D2B212F0800F4FEA420218BF82F03102D1
:1031F000D2B212F0800F4FEA420218BF82F03102C1
:10320000D2B212F0800F4FEA420218BF82F03102B0
:10321000D2B212F0800F4FEA420218BF82F03102A0
:10322000D2B212F0800F4FEA420218BF82F0310290
:10323000D2B212F0800F4FEA420218BF82F0310280
:10324000D2B212F0800FB6B24FEA420218BF82F03B
:103250003102B4423046D2B2B8D1944500F0D281A6
:103260009AF80E20BAF800C0002A40F08382B9F123
:10327000010F40F2E18101FB0CF4DAF81060A219B1
:10328000AA4286BF09F1FF3204FB02542C1BDC4525
:1032900040F2AC813446BCF1000F00F01D81AA1B46
:1032A000B2FBF1F2B2FBFCF548080CFB1525024617
:1032B00000FB05F0024408900492BBF1000F00F0FF
:1032C000B882039A02EB83030B9300230BF1FF32C6
:1032D0001D461F460293009213E001230293002F24
:1032E00000F0C0804FEA910E0CFB01F309FB036371
:1032F00004EB8E0401359C4228BF3446AB4500F0F8
:10330000EC80009B9D42E8D2A646081F5EF8018B28
:1033100000F028820027FF223B461EF803300137C9
:103320005A4012F0800F4FEA420218BF82F0310279
:10333000D2B212F0800F4FEA420218BF82F031027F
:10334000D2B25300120648BF83F03103DBB213F050
:10335000800F4FEA430318BF83F03103DBB213F051
:10336000800F4FEA430318BF83F03103DBB213F041
:10337000800F4FEA430318BF83F03103DBB213F031
:10338000800F4FEA430318BF83F03103DBB213F021
:10339000800FBFB24FEA430318BF83F03103B84236
:1033A000DAB23B46B9D1904500F006819AF80E306A
:1033B000002B40F07181284F4FEA910E94E7274C83
:1033C000204613B0BDE8F08FDAF80420DAF81030A8
:1033D000B0FBF2F402FB140403441E1B631E3B44C7
:1033E000B3FBF2FBBBF1FF3F0D462FD0B946DFF830
:1033F00070800027CDF800B000E00F46DAF81C001E
:1034000043463146D0F814B00068D847DAF80430A3
:1034100029461A1B4A4528BF4A4608EB0400A9EB77
:10342000020915440FF0B8FD51463046FEF7C6FFBD
:10343000791C04460028C3D1DAF80420CAF81860C1
:1034400022F003031E44009BBB42D6D10024B7E701
:10345000D11D0034E01D003401003E0900003E098A
:10346000D01D0034DDF80C80D8F80870049BBB42F6
:103470002ED9D8F80C20089B07EB020E734527D2F3
:10348000BB4200F2E980BAF814100298B7FBF1F3DE
:1034900001FB13730499714538BF0A460B9938BF75
:1034A000D21B0B440021002840F0E4800746DAF8E4
:1034B0001C0008F11008466941440068B047BAF89A
:1034C0000210BAF800C09AF80C90DAF8106009E718
:1034D00000274FEA910E07E7A34F043900F0A781B8
:1034E0000022FF231046A14C0132205C92B24340DF
:1034F00013F0800F4FEA430318BF83F03103DBB2B0
:1035000013F0800F4FEA430318BF83F03103DBB29F
:1035100013F0800F4FEA430318BF83F03103DBB28F
:1035200013F0800F4FEA430318BF83F03103DBB27F
:1035300013F0800F4FEA430318BF83F03103DBB26F
:1035400013F0800F4FEA430318BF83F03103DBB25F
:1035500013F0800F4FEA430318BF83F03103DBB24F
:1035600013F0800F4FEA430318BF83F031039142F9
:103570001046DBB2B7D1039A514601981360FEF7AB
:103580001DFF70BB9AF80E30C3B9019B059ACAF8AB
:103590001830BAF816300A99D21A0592069A1A44C7
:1035A0000692079A1A440792099A914202F101037E
:1035B00000F041810993B4E5A04655E79AF80C3034
:1035C000BAF80000514603FB00F0BAF802309B083D
:1035D00003FB00F0019B03EB8000FEF7EFFE0028E9
:1035E000D3D00446204613B0BDE8F08F0CFB01F2A7
:1035F00009FB0262880804EB8004944228BF344629
:10360000E34648E60EEB8301039EDAF81C0006EB66
:1036100083034469BAF814200068A0479AF80C9014
:10362000BAF80210B9F1010FBAF800C0D6F804B028
:103630004FEAD1033FF61FAE019CDAF8106026E690
:103640002F46DDF804E00C1FDEF800C007F101078B
:103650007FF4B9ADFF2200E6BAF81410AEEB030216
:10366000B7FBF1F001FB107702980B9BC91B0028F8
:103670003FF41CAF08F11008414418460FF08CFCD1
:10368000BAF802100027BAF800C09AF80C90DAF8DD
:1036900010604FEA910E27E609FB0CF34FEA910EFA
:1036A0000EFB03F304EB830854F823300D9308F169
:1036B00001030E93002800F0C08000270F94FF2321
:1036C0003A460E9C3EE05200D3B213F0800F4FEA10
:1036D000430318BF83F03103DBB213F0800F4FEACE
:1036E000430318BF83F03103DBB213F0800F4FEABE
:1036F000430318BF83F03103DBB213F0800F4FEAAE
:10370000430318BF83F03103DBB213F0800F4FEA9D
:10371000430318BF83F03103DBB213F0800F4FEA8D
:10372000430318BF83F03103DBB2013713F0800F7E
:10373000BFB24FEA430318BF83F03103B8423A46A1
:10374000DBB208D0A25C5A401306BCD5530083F00C
:103750003103DBB2B9E70F9C0D9A9A423FF484AE75
:10376000034FC1E5FF221EE603003E09D11D0034D0
:1037700001003E0909FB0CF2880800FB02F20EEB87
:10378000820808F101075EF822E0002C57D00026DD
:10379000FF223046385C0136424012F0800F4FEA7B
:1037A000420218BF82F03102D2B212F0800F4FEA0B
:1037B000420218BF82F03102D2B212F0800F4FEAFB
:1037C000420218BF82F03102D2B212F0800F4FEAEB
:1037D000420218BF82F03102D2B212F0800F4FEADB
:1037E000420218BF82F03102D2B212F0800F4FEACB
:1037F000420218BF82F03102D2B212F0800F4FEABB
:10380000420218BF82F03102D2B212F0800FB6B27B
:103810004FEA420218BF82F03102B4423046D2B2BF
:10382000B8D196457FF423AD08EB8301ECE6FF2386
:10383000A1E65F4651E63C46C2E5FF238CE7FF2246
:10384000EFE700BF00F08ABC0C4B0D490D4A10B4E5
:103850000D48C3E900120D4C0D490E4AC3E9024060
:10386000C3E904120C4C0D480D490E4AC3E9064049
:10387000C3E908125DF8044B704700BFF80C003430
:10388000453800128D3D0012B13D0012A13D0012DD
:103890000D3E0012D942001235440012F5450012C7
:1038A0009145001271460012F8B54D4B4D4C4E4AF1
:1038B000D96AB4F97E301167002B126F09DB012140
:1038C0005A094A4803F01F03603201FA03F340F833
:1038D0002230454AA36BD2F80811012B03F10102F3
:1038E000C4F8C810A26377D0414B424A1869424DD0
:1038F000C04392F8E0304149414E096960F38203C8
:1039000095F804C043F380003778C1F3801160F369
:10391000020C82F8E030317085F804C0DBB20FB1E0
:10392000002955D092F8E03003F0010392F8E0103E
:10393000F7EE007A63F30001324B82F8E01093ED6A
:10394000017AB4EE677A1021F1EE10FA284B14BF19
:10395000C3F88410C3F8881092F8E0306FF3410385
:1039600082F8E03003F0D4FDD5E9023213434FF082
:1039700020021F4B94ED305A0CBFC3F88420C3F8CB
:103980008820194AD4F8C830D2F80821D4ED2D7A0D
:10399000D31A07EE103AF8EEE77AB8EEC77AD4ED0C
:1039A000375A67EE857A27EE257A94ED316AD4EDA1
:1039B000386A26EE276AC4ED2E7A66EE877A84EDA1
:1039C000357A84ED2F6AC4ED367AC4E93323F8BD25
:1039D000DB4303F00103A9E7FCF77AFD84E700BFAE
:1039E00020380112D01F00340000A05200E100E096
:1039F000000441523C26003430250034000241527C
:103A00003C040034F02300342DE9F843A24BA34DCD
:103A1000D3F8082195F83433A14C022BC4F8AC201C
:103A200014D1F7EE007ABFEE007A9E4A9E4BD2F890
:103A30000806D2F8101702F51422126E988112F4BB
:103A4000807F47FE277AC3ED027A9980DFF878E21B
:103A5000964ADEF8903092F800C019096FEA131305
:103A6000DFF8689203F0010363F3000C89F800307B
:103A7000DEF89030DFF8588281EA53116FEA531371
:103A800003F0010363F3410C88F80030DEF8903056
:103A900087486FEA9313874F5940067803F0010374
:103AA00063F3820C3B7082F800C001F00101002E2C
:103AB00000F0E680002900F0E680B4F89030D4ED04
:103AC000077A07EE103AB8EEC77A7B4E27EE277AD0
:103AD00096ED012A67EE027AFCEEE77A94F8E72089
:103AE00094ED031A04EB8202B2F8842094F8E630D5
:103AF000C2F5006206EE102A94F8E820B8EEC66A15
:103B000004EB8202B2F8842026EE016AC2F500625C
:103B100006EE902AB4F8A420F8EEE66A03EE102A26
:103B2000B4F8942066EE816A03EE902AB4F8A820D7
:103B300004EB830304EE102AB4F88C20B3F884302D
:103B400004EE902AB4F8A020C3F5006305EE102A15
:103B500017EE902A0F2A28BF0F22012A38BF012210
:103B600007EE902A05EE903A544B017006EB820165
:103B700083ED056AC3ED096AB8EEE76AD1ED016A23
:103B8000D1ED027AD6ED001A77EEE67AF8EEE55A34
:103B9000D4ED042AA1EEC67A65EE815A67EE827AE8
:103BA00094ED050AD4ED060AB8EEC55AB8EEC33A4C
:103BB000F8EEE33AB8EEC44AF8EEE44AE7EE876A74
:103BC000C3ED015A23EE223A63EEA23A24EE224AD2
:103BD00064EE804A65EE205A394EC3ED316A83EDBA
:103BE000213AC3ED253A83ED294AC3ED2D4AC3EDB1
:103BF000355A03F079FC94ED0A6AD6ED496A96EDE0
:103C00004A7AD6ED4B7A66EE266A26EE077A66EE9B
:103C1000277AFCEEE66ABCEEC77AFCEEE77A95F806
:103C2000DC52204B012DC3ED056AC3ED076A83ED1D
:103C3000457A83ED477AC3ED857AC3ED877A13D150
:103C4000D6ED4C7A96ED4D7A66EE277A26EE076A27
:103C5000FCEEE77ABCEEC66A17EE902AC3F814248D
:103C600016EE102AC3F81C2504F0C4FE0A4AD4F844
:103C7000AC30D2F80821D31AC4E92C23BDE8F8836C
:103C800000293FF41AAF0F4E034B3768D3F80832C0
:103C90003360DB1BD36010E70000A0522C0D003412
:103CA000D01F00340000A1525C680034E4250034C9
:103CB000BC200034C6200034C00200343C2600344E
:103CC000F0230034C020003400034152C4200034EB
:103CD000C5200034012212491248B1F97A3010B4DB
:103CE000002B0265006D08DB58090F4C03F01F0321
:103CF0009A4000F1600344F823200A480B4BCA6A3B
:103D0000C364836C01321B0C1B048364D307CA6237
:103D100003D45DF8044BFFF777BE5DF8044B7047A2
:103D2000D01F00340080185200E100E0341300344A
:103D3000012212491248B1F9783010B4002B026107
:103D4000006908DB58090F4C03F01F039A4000F18B
:103D5000600344F823200A480B4BCA6AC360836897
:103D600001321B0C1B048360D307CA6203D45DF8C5
:103D7000044BFFF749BE5DF8044B7047D01F003479
:103D80000080185200E100E0BC12003408B5FEF7D4
:103D900044FA024BC3F8800008BD00BFD01F0034B6
:103DA000024BD3F88000FEF73CBA00BFD01F0034AE
:103DB000F0B4012102270826042520241020114BED
:103DC0001A6C22F4F8521A641A6C22F01F021A6458
:103DD0000D4A57605160196C21F0F8511964196C43
:103DE00021F4F811196456605560596C21F4F851AA
:103DF0005964596C21F01F01596454605060F0BC43
:103E0000704700BF0000405200024152124B1A6C32
:103E100022F4F85242F4D8521A641A6C22F01F02AB
:103E200042F01B021A641A6C22F0F85242F0D85287
:103E30001A641A6C22F4F81242F4D8121A645A6CFA
:103E400022F4F85242F4D8525A645A6C22F01F02FB
:103E500042F01B025A647047000040522DE9F04FB7
:103E6000274B83B0DFF8C480DFF8C4A0254E264F6F
:103E70000193D3464546DDF80490741F28685BF82B
:103E8000041B04F00BFF59F8041B55F8040B4160A8
:103E900014F8011B213107EB8101B4428160EDD19F
:103EA000019B08F1140814330193184B0AF1140A0A
:103EB000984504F10506DCD101250021144A154876
:103EC000154C04F06FFF154B154EE360A3682946AF
:103ED0003340A360A5612368124A43F00043236086
:103EE0000C4804F05FFF104BE364A36C3340A36401
:103EF000A565236C43F00043236403B0BDE8F08F55
:103F0000C40C0034F10C0034D01F0034C002003463
:103F1000D83001120000185200801852BC12003430
:103F20000000FFFFD831011234130034980200342E
:103F30007002003400222DE9F04111464FF4A060D8
:103F400090460BF049F907EE900AF8EE677A714C4B
:103F5000012241464FF4A060C4ED007A0BF03CF919
:103F600007EE900AF8EE677A022241464FF4A0600D
:103F7000C4ED017A0BF030F9674A94ED006AD2ED96
:103F8000137A66EE277AFCEEE77A566DF7EE005A62
:103F9000C4F8C46017EE906A136D26F0010606FBA4
:103FA00003F366627608C5EE866A07EE100A07EE2E
:103FB000906AB8EE477AC4ED306AC4ED376AF8EE1D
:103FC000E76A07EE903AD2F85CC0126E0CFB03FC75
:103FD0006168C4F8E020514A84ED027A9160504A49
:103FE000504F82ED007AB8EE677A07EE90CAF8EE8D
:103FF000677A4FF482714C4A3846C4ED0A6A84ED00
:104000000D7AC4ED107AC4F83CC02363C4F8208054
:10401000C4F82C80C4F838800CF06CF840F205111C
:10402000424A38460CF066F8236B07F58035013BB1
:10403000C5F8203440F20311C5F820353C4AC5F8D4
:1040400010643846C5F81865C5F81464C5F81C65D1
:104050000CF050F8236B4FF48071013BC5F820330E
:10406000344AC5F8106338460CF044F8626A40F2EE
:104070000111930852082A6238462B612E4AAB611F
:104080006B61EB610CF036F8626A4FF48171930852
:104090005208C5F820213846C5F81031274AC5F81E
:1040A0001831C5F81431C5F81C310CF023F8626AD8
:1040B000414693085208C5F82022C5F81032C5F8C9
:1040C0001832C5F81432C5F81C32E36B1C4A384666
:1040D0005D1E0CF00FF8E36B0221013B3B62194AB5
:1040E00038463D610BF0AAFC0121174A38460BF017
:1040F000A5FC4FF48371154A38460BF09FFC144A17
:1041000040F2071138460BF099FC124B124ADA6361
:10411000BDE8F081D01F00342C0D0034E4250034BC
:104120005C6800340000A052E831011294320112A0
:10413000703501121C360112C83601127437011293
:1041400020380112F434011288340112B033011204
:104150001C3401123C260034E82300342DE9F043DE
:1041600087B00BF08DF94A4F000438600BF07CF9F2
:1041700025234FF00009ADF800303B68454918434E
:1041800038606846CDF804900BF09AF8262342492F
:1041900002A8ADF80830CDF80C900BF091F83F4A2A
:1041A0003F4E04AB92E8030083E8030018463D4904
:1041B0000BF086F896EDBC7AD6EDB87ADFED3A6A68
:1041C00067EE877A394C3A4B86EEA77A4C21A36783
:1041D0004FF066534FF00108364A374884ED037AB2
:1041E000A4F87E1022616261A361E36104F090FF94
:1041F00096F8DC023149324B4FF4A062404518BFBB
:104200000B46304D3049A4F8E6200B6084F8E88076
:10421000984784F8E480FFF721FEFFF78BFE2B68B8
:10422000284643EA08032B6028490BF0D7FED6ED59
:10423000157AFCEEE77A264A5378917810781B01BC
:10424000090201F4E06103F070030B4300F0070181
:10425000D0780B4311790003527900F4E04009044F
:1042600001F4E021034312050B4302F4E00213437F
:104270006B6617EE900A04F051FB164A92F8E03094
:1042800043EA080382F8E03007B0BDE8F08300BFDE
:10429000200D0034313D0012D53C00120C420112B9
:1042A0002C0D0034A93800120000A03AD01F0034B1
:1042B0002500260000005C3CF03801127D0300124E
:1042C000290400120040AA5238040034603501125B
:1042D000080300343C26003470B5FDF79EFF4D4DB9
:1042E000B5F97830C5F88000002B07DB012203F018
:1042F0001F0049495B09824041F823204749B5F92D
:104300007A300A68002B42F000420A6007DB012283
:1043100003F01F0040495B09824041F823203F49D8
:10432000B5F97E300A68002B42F000420A6007DBD4
:10433000012203F01F0038495B09824041F8232025
:10434000374B1026D3F80026012042F00042C3F874
:1043500000260022C3F84066AA63EA62D3F8002769
:10436000304942F00042C3F800278860D3F80024A7
:104370002D4C42F00042C3F80024D3F8002542F04F
:104380000042C3F80025D3F8002342F00042C3F8EE
:1043900000231A6842F000421A60D3F8002142F06C
:1043A0000042C3F80021D3F8002242F00042C3F8D3
:1043B0000022236843F000432360FCF78FF8266453
:1043C000D4F80032194A43F00043C4F80032C4F86C
:1043D0004062D4F8003192F8342343F00043012ABC
:1043E000C4F80031C4F840610AD0022A02D1802208
:1043F0000F4B9A60D5F88000BDE87040FDF711BF03
:1044000080220B4B5A60D5F88000BDE87040FDF764
:1044100008BF00BFD01F003400E100E000001852C8
:104420000000A1520040AA520000A0522C0D0034FE
:104430000002415210B5FDF7F0FE4D4B4D4993F887
:104440003433C1F88000022B00F08E80012B02D1A2
:104450008022494B9A60494A0020D2F80041484BDB
:1044600024F00044C2F80041D2F8004224F0004495
:10447000C2F80042146824F000441460D3F800220B
:10448000404C22F00042C3F80022D3F8002122F071
:104490000042C3F800211A6822F000421A60D3F8E3
:1044A000002322F00042C3F80023D3F8002522F0B5
:1044B0000042C3F80025D3F8002422F00042C3F8DC
:1044C0000024A060D3F80007B1F97E2020F000405E
:1044D000C3F80007D3F80006002A20F00040C3F814
:1044E00000060DDB0120284C530902F01F02203387
:1044F00000FA02F244F82320BFF34F8FBFF36F8F0F
:104500002248B1F97A300268002B22F000420260A2
:104510000DDB01201C4C5A0903F01F03203200FA66
:1045200003F344F82230BFF34F8FBFF36F8F174868
:10453000B1F978300268002B22F0004202600DDBF6
:104540000120114C5A0903F01F03203200FA03F333
:1045500044F82230BFF34F8FBFF36F8FD1F8800044
:10456000BDE81040FDF75DBE8022034B5A6072E744
:104570002C0D0034D01F0034000241520000A05224
:104580000000A1520040AA5200E100E000001852D1
:1045900038B5144C054694F844307BB1606D08B1D1
:1045A000002038BD4FF4B26229460F4BFEF78CFD58
:1045B0000346B0FA80F06365400938BD4FF480537C
:1045C0000A4A0B49126804F14800C4E9131204F1C5
:1045D0005801A364FEF7EAF90122606584F84420DB
:1045E000DDE700BFD01F003428200034340400343D
:1045F0000101000130B51A4C83B002AB03E903009E
:1046000094F844301546BBB1606D10B1002003B082
:1046100030BD4FF4B2622946124BFEF779FA60655D
:104620000028F3D12A68009B9A42EFD16A68019B67
:104630009A42EBD10120EAE74FF480530A4A0B4932
:10464000126804F14800C4E9131204F15801A3648C
:10465000FEF7ACF90123606584F84430D5E700BF6C
:10466000D01F00342820003434040034010100013C
:10467000014B93F8E4007047D01F0034816170470C
:104680000A88144B07EE902A91ED045AD3ED026A82
:10469000DFED115AF8EE677A91ED017A93ED166A23
:1046A00066EE856A67EEA57A034627EE067A87EE00
:1046B000A66A10B400F1280203F10C04083103C902
:1046C00083ED077A83ED086A82E803009C615DF858
:1046D000044B70472C0D003483F9A23E002380ED7B
:1046E000000A80ED010A80ED050A8360C360036162
:1046F000704700BF10B5D0ED027A2DED028B90ED22
:10470000038AD0ED076A77EEC87AA7EEA68A80ED15
:10471000038A836990ED087AD3ED007AF0EEE77AA8
:10472000D0ED0A8A67EE877AF4EEE87AF1EE10FAB5
:10473000044603D4D0ED0B8AC7FEE88AD4ED057A8F
:1047400094ED000AC4ED098A30EE670A01F090F892
:10475000094BA0EE288A93ED167AD4ED057AE8EE9F
:10476000077A84ED048AB0EE670A01F081F8BDECA7
:10477000028B84ED050A10BD2C0D0034D1ED003AFA
:10478000C0ED063AD2ED006AC0ED096A91ED016A0A
:1047900080ED076A92ED014A80ED0A4A91ED027AB6
:1047A00060EE007A80ED087A27EE277AD2ED025A81
:1047B000F0EE474A65EEA77AE0EE046AE0EE064ABC
:1047C00077EEA66A37EE075AB7EE003AC0ED0B5AFD
:1047D00077EEA75AA0EE065A74EEA34A83EE266A35
:1047E000E0EE045A64EE864A66EE866A26EE455A84
:1047F00065EEC65A27EE067A67EE867A80ED000AE5
:10480000C0ED0C4AC0ED0F6A80ED0D5AC0ED105A94
:1048100080ED0E7AC0ED117A704700BF00B5C0ED93
:10482000010A8E469EED006A944680ED026ADCED38
:10483000006AC0ED046A9EED015AF7EE007A80ED41
:10484000035AC7EE854A87EE867A26EE056A9CED06
:10485000015AC7EEA65A37EE247A66EE856AC0EE94
:10486000864A87EE856A27EE207A35EE866AC7EE9D
:10487000A65A87B0694680ED055A03AACDED037AA2
:10488000CDED000ACDED024A8DED017A8DED046A81
:10489000CDED055AFFF772FF07B05DF804FB00BFCE
:1048A000D0ED0C7AD0ED0D6A90ED0E7A77EEA67A07
:1048B00077EE877A80EE277A80ED127A80ED137A90
:1048C000704700BFD0ED137A90ED117AD0ED126AE7
:1048D00090ED105AD0ED0E4A27EE877AD0ED0D5AA2
:1048E000C0ED147AA6EE857A67EEA47A30EE477AA8
:1048F00090ED0C6AE6EEA57AE7EE067A80ED150AF1
:10490000C0ED136AB0EE670A80ED127AC0ED167A38
:10491000704700BF034BD3ED017A20EE270A83EDE9
:10492000070A7047F0230034094BF0EE400A93ED7C
:10493000BE7A93ED160A10B5064C82B094ED071AB4
:1049400027EE000A00F0B2FF84ED070A02B010BDA6
:104950002C0D0034F02300340D4A38B50D4DA2F56E
:104960007D7494ED150A2846F7EE000AA2F10801BD
:10497000FFF754FFD4EDFF0A20EEA01AD4ED161A6B
:1049800005F15C00B0EE410ABDE8384001F09AB98B
:1049900020110034C820003410B52DED028B9FED9E
:1049A0000B8A0B4CB0EE480A2046FFF779FF04F162
:1049B0005C0001F083F9074B83ED0E8A83ED0F8ACB
:1049C00083ED108ABDEC028B10BD00BF000000001B
:1049D000C8200034F023003410B50D4B0D4C93F873
:1049E000E833012B08D094ED0D0AF0EEC07A84ED87
:1049F0000E0AC4ED0F7A10BD94ED0D0A0648FFF7BC
:104A000061FFF0EEC07A84ED0E0AC4ED0F7A10BD9E
:104A10002C0D0034F0230034C820003410B50F4BA7
:104A20000F4C93F8E833012B0FD0D4ED0D7AB0EE94
:104A3000E77A94ED070A0B48C4ED0E7A84ED0F7AFD
:104A400001F050F984ED100A10BD94ED0D0A0648EE
:104A5000FFF738FFF0EE407AE9E700BF2C0D003495
:104A6000F023003424210034C820003438B51E4C13
:104A70002DED028B04F23443D3ED000A94ED167A47
:104A800004F22C4304F23C42B0EE408AD3ED007AAB
:104A9000D2ED001A60EE870A144DB1EE611A284675
:104AA00020EE270A60EE880A00F0F2FB04F5876327
:104AB000D3ED000AD4ED167A04F5886304F5866414
:104AC000D3ED001A94ED000A60EEA70A28EE000A62
:104AD00060EE880ABDEC028B05F12000B1EE611A90
:104AE000BDE8384000F0D4BB2C0D00347C210034EC
:104AF00010B5054C204600F0C5FB04F12000BDE8D0
:104B0000104000F0BFBB00BF7C210034F8B5394F26
:104B1000394C97F84C31002B5DD0384B94ED276A17
:104B200003F24442D3ED045AD2ED006A93ED051A24
:104B300093ED037AD4ED260AD4ED0D7A20EE877A30
:104B4000A5EE861A67EEA67A84ED231A21EE271ABF
:104B500067EEC77A2A4D94ED200A05F1B40084ED82
:104B6000227AC5ED2C7A85ED2B1A00F09BFB95ED92
:104B70002C1AD4ED270A94ED210A05F1D40000F097
:104B800091FB204ED5F8F020D5F8D030C4F8A42001
:104B9000A6F16C013246A6F12C00C4F8A03000F05A
:104BA0009DFC96E8030097F84C2106F1080383E882
:104BB00003007AB194ED357AD4ED367A95EDAE6A8C
:104BC000D5EDAF6A37EE067A77EEA67A84ED357AC0
:104BD000C4ED367AF8BD04F1600094ED170A00F0D8
:104BE000E1FB04F1980204F1600104F1BC0000F063
:104BF0005FFC92E720270034F02300342C0D0034B2
:104C0000C8200034BC24003470B5204D204C95EDF4
:104C1000096AD5ED164A95ED0F5AD5ED106A95ED56
:104C2000117AD5EDC07A66EE866A27EE067AC4EE72
:104C3000855A67EE867A174B174AD5ED190A95ED16
:104C4000C30AC3ED006A83ED017AC3ED025A166808
:104C5000C4ED0D7A04F13800B047D5ED190A95ED91
:104C6000C30A04F14800B047002140F2833200201B
:104C7000002341F6FF55C4E90401A2617C214022D2
:104C8000E5616362E3622162A26270BD2C0D0034B3
:104C90003025003488250034184201124FF0000CF2
:104CA00000200021DFED0A7A00B50A4B0A4AD3F84A
:104CB00020E00A4B82F814C083F830C0C2ED037ABA
:104CC000C3E90001C3E90201C2F818E05DF804FB82
:104CD000000000002C0D00348825003430250034FD
:104CE0000B4A0C4BD2ED2E7AD2ED2D6A67EEA77AE5
:104CF00093ED037AE6EEA67A93ED026A77EEC76A41
:104D0000A6EE867AC2ED327A83ED037A704700BF51
:104D1000F023003488250034F8B5594B594DD3EDB4
:104D2000036A93ED007AF1EEE67AF4EEC77AF1EEDB
:104D300010FAC3ED047AC5ED317A07DB1A7D2AB982
:104D40000121514E1975726A9A6107E093ED017A5B
:104D5000F4EEC77AF1EE10FA68D44B4E4B4C95ED59
:104D60004E7A94ED0D6AF4EEC67AD6EDC26AF1EE93
:104D700010FAB4EEE67AACBF01220022F1EE10FA8E
:104D8000237862F30003237063DB414B04F13800A6
:104D90001B6898473F4B40481F68B847237860F32B
:104DA000820323703D48B84795ED4F6AD6EDC46A3B
:104DB00095ED0F7AD6EDC57AB4EEE66AF1EE10FA0B
:104DC000B4EEE77AACBF4FF0010E4FF0000EF1EEFB
:104DD00010FA636895F802C06F78D4E9022545EAB5
:104DE00003054FEAC00343EA4E03A8BF4FF0010E8C
:104DF000D4E90810B8BF4FF0000E43EA0E1326881E
:104E000043EACC1343EA072326F4CD7603F4CD73AB
:104E100033432380236828401A4311400143E5604F
:104E2000A2600CD0022384F83030F8BD1A7D164EF3
:104E3000012A01BF0021326A19759A618EE7D4E90F
:104E400006131D400A402A431CBF012384F830305A
:104E5000F8BDD6EDC17AB4EEE77AF1EE10FA05D8D6
:104E60000B4B04F148001B68984793E704F13800A6
:104E700000F074FD04F1480000F070FD8AE700BF07
:104E800088250034F02300342C0D00343025003404
:104E9000144201121C4201126825003478250034A6
:104EA0000B4B30B4D3E90012D3E90A5401EA0500F0
:104EB0001860002002EA04019A6883F830002A4052
:104EC000C3E90112DA682240DA6030BC704700BFE3
:104ED000302500340C4B93F8003173B910B50B4CEE
:104EE000A3699847236A0A48984763699847094A1B
:104EF000936843F00403936010BD064A936843F03F
:104F000004039360704700BF20270034F80C00347E
:104F10002C0D0034A82500340D4B93F8003183B9D3
:104F200010B50C4CA369984702200CF031F8FBF740
:104F300013FD63699847084A936843F02003936020
:104F400010BD054A936843F020039360704700BF8B
:104F500020270034F80C0034A82500340D4B93F8BA
:104F6000003183B910B50C4CA369984701200CF0AF
:104F70000FF8FBF7F1FC63699847084A936843F020
:104F80001003936010BD054A936843F010039360CB
:104F9000704700BF20270034F80C0034A8250034E7
:104FA00038B50A4B93F800414CB9094DAB699847A5
:104FB00020460BF0EDFFFBF7CFFC6B699847054AE5
:104FC000936843F00803936038BD00BF2027003486
:104FD000F80C0034A82500340B4B93F800316BB962
:104FE00010B50A4CA3699847FBF7B6FC636998476C
:104FF000074A936843F00103936010BD044A936825
:1050000043F001039360704720270034F80C00340C
:10501000A825003470B50F4C94F800519DB90E4E80
:10502000B36998473368984702F0DCF80B4B04F5F6
:105030008670D3ED160A93EDBD0A00F0FFF8736990
:1050400084F809519847064A936843F00203936035
:1050500070BD00BF20270034F80C00342C0D003444
:10506000A8250034084B0949094A10B40948C3E986
:105070000312094C09490A4AC3E90540C3E907126A
:105080005DF8044B704700BFA8250034D94F0012CB
:1050900015500012A14F0012D54E00125D4F0012A4
:1050A000194F00120022024BC3E90122704700BFD2
:1050B000A8250034F8B500240127A446134D07E0C5
:1050C00018B11E421CBF9A436A600134062C1BD0E3
:1050D000296807FA04F36A680B42AE6802EA030023
:1050E000EED00028F1D11A4326EA030605EB84032B
:1050F000BCF1000FE9D1DB686A60AE60013498470B
:10510000062C4FF0010CE3D1F8BD00BFA8250034F8
:105110000022024BC3F80421704700BFC8200034AE
:10512000404991F85034012B3F4B07D093ED1F6A53
:105130009A6F83ED216AC3F880207047D3ED267AF9
:105140003A4A67EEE77AD2ED062A01F2544090ED32
:10515000005A9FED373AD3ED286AE2EEA27AD3EDFA
:105160004E4A93ED297A64EE854A27EE477AB0EEEF
:10517000E65AC7FE836AD1ED0A3AF1EEE67AA4EE6A
:10518000A47AF4EEE37A87FE037ADFED2A5A2A4AFC
:10519000F1EE10FAF1EEC74A63EEA55A92ED414ADC
:1051A00001F25C41C2ED447A93ED1F6A74EEC56A68
:1051B00091ED002A82ED3E7A85FEE77ACCBFF1EED2
:1051C000637AF1EE677AF0EE445A77EEC67AE6EE4D
:1051D000825AF4EEE75A37EE467AF1EE10FAC2ED53
:1051E0003F4AC2ED406A82ED437AC2ED427A16D55B
:1051F000F5EEC07AF1EE10FAC2ED417A47BF36EE15
:10520000276A01200020DFED0A7A996FC2ED457A06
:1052100083ED216A82F8F400C3F880107047C5FE60
:10522000C77AE5E72C0D0034F023003488250034DC
:1052300000000000CDCC4C3DC8200034C0EE207AE8
:105240000023FCEEE77A80ED000AC0ED010AC0ED14
:10525000027AC360704700BF0023C360704700BF7D
:10526000D0E90223934238BF0133C360704700BFC7
:10527000D0E90202824234BF00200120704700BF03
:10528000704700BF002303618361C361704700BFA3
:1052900080ED000AC0ED010A80ED021AC0ED031A8C
:1052A000704700BF30EE600AD0ED047A90ED016ADD
:1052B000D0ED006AE0EE067A80ED051AA0EE261A1F
:1052C00090ED027AC0ED047A77EE817AB4EEE77A57
:1052D000F1EE10FA80ED060A06DA90ED037AB4EEEC
:1052E000E77AF1EE10FA06D837EE411A80ED077A28
:1052F00080ED041A7047C0ED077A7047D0ED007A50
:1053000080ED070A30EE410AA7EEE00AC0ED060A7A
:1053100080ED051A80ED040A704700BF002380ED80
:10532000010A0360704700BFD0ED007A90ED017A6A
:1053300070EE277AF6EE006AA7EEA67A80ED000AF4
:1053400080ED017AB0EE470A704700BFD0ED027AD7
:10535000D0ED016A9FED057A77EEE67A67EE877AFF
:105360000368C1ED017A0B60704700BF3ACD133F6F
:10537000D0ED017A9FED0A6A67EE867A90ED007AA9
:10538000FEEE006AB0EE676AE7EE267A97EE266ACE
:1053900081ED007A81ED016AC1ED027A704700BFAC
:1053A000D7B35D3FB5EEC00ADFED3E7AF1EE10FAFD
:1053B00060EE277ABCBFB7EE007A77EEC77AFDEED3
:1053C000E77A9FED396AF8EEE75A3849A5EEC60A42
:1053D00091ED1B7A17EE903A60EE077AFCEEE77AD1
:1053E000D1ED1A6A17EE902AF8EE677A03F00303FC
:1053F000022BA7EEE60AC2F13F0C16D0032B3ED0DB
:10540000012B27D001EB8202D2ED1C6A01EB8C014B
:10541000D1ED1C7AB0EE667AA7EE807AE6EEC07A1D
:1054200080ED007AC0ED017A704701EB8202D2ED87
:105430001C6A01EB8C01D1ED1C7AB0EE667AA7EE06
:10544000807AD6EE807AB1EE477AC0ED017A80EDAF
:10545000007A704701EB8C0C01EB8201D1ED1C6AE4
:105460009CED1C7AF0EE667AE7EE007AA6EEC07A42
:10547000F1EE677A80ED007AC0ED017A704701EBBA
:10548000820201EB8C01D1ED1C6AD2ED1C7AB0EEE8
:10549000667A97EE807AE6EE807A80ED007AC0ED4B
:1054A000017A704783F9223FDB0FC93F2C0D00348E
:1054B000D0ED017AD1ED016AD1ED005A90ED006A8C
:1054C00026EEA77A65EEE77AA6EE257AE6EE267A4C
:1054D00082ED017AC2ED007A704700BFD0ED017A0B
:1054E000D1ED016AD1ED005A90ED006A26EEA77A5F
:1054F00067EEA57AA6EE657AE6EE267A82ED017A67
:10550000C2ED007A704700BFB5EEC00AF1EE10FAA6
:10551000F5EEC00ACCBF01220022F1EE10FACCBF9A
:105520000123002343EA4203012B31D0022B00F078
:105530008C8070EEC07AF5EEC07A002B59D0F1EE77
:1055400010FA9E4A40F33181C0EE206A92ED5D6A06
:1055500066EE867AFDEEE77A17EE903A1E2BA8BF2C
:105560001E2323EAE37307EE903A02EB830191EDE9
:105570005E0AD2ED5C5AF8EEE77A91ED5F7AE7EEDB
:10558000E56A77EE407A67EEA67AA6EE270A7047BC
:1055900070EE207AF5EEC07AF1EE10FA00F1DA80C2
:1055A000B1EE400A854AC0EE206A92ED5D6A66EE71
:1055B000867AFDEEE77A17EE903A1E2BA8BF1E23DF
:1055C00023EAE37307EE903A02EB830191ED5E0A62
:1055D000D2ED5C5AF8EEE77A91ED5F7AE7EEE56A94
:1055E00077EE407A67EEA67AA6EE270AB1EE400A79
:1055F0007047F1EE10FA714A59D4C0EE806A92ED0C
:105600005D6A92ED5C5A9FED6E0A66EE867AFDEE5B
:10561000E77A17EE903A1E2BA8BF1E2323EAE37306
:1056200007EE903A02EB8301D1ED5E5AF8EEE77A8D
:1056300091ED5F7AE7EEC56A77EE657A30EE650A3E
:1056400067EEA67AA6EE670A704770EE207AF5EE4E
:10565000C07AF1EE10FA52DDF1EE600A574A80EEA0
:10566000806AD2ED5D5A26EE257ABDEEC77A17EE36
:10567000103A1E2BA8BF1E2323EAE37307EE103A4D
:1056800002EB830191ED5E5ADFED4E7AD2ED5C4A7A
:10569000B8EEC77AD1ED5F6A35EE270AA7EE646AE5
:1056A00076EEC57A67EE867AA5EEA70A7047C0EE59
:1056B000206A92ED5D6A66EE867AFDEEE77A17EE75
:1056C000903A1E2BA8BF1E2323EAE37307EE903AFD
:1056D00002EB8301D1ED5E5A92ED5C5AF8EEE77A67
:1056E00091ED5F7AE7EEC56A9FED370A77EE657A4E
:1056F00035EEC00A67EEA67AA6EE270A7047B1EE2D
:10570000400A2E4A80EE206AD2ED5D5A26EE257AB6
:10571000BDEEC77A17EE103A1E2BA8BF1E2323EA50
:10572000E37307EE103A02EB830191ED5E5ADFED71
:10573000267AD2ED5C4AB8EEC77AD1ED5F6A37EED1
:10574000C50AA7EE646A76EEC57A67EE867AA5EE9C
:10575000E70A7047F1EE600A184A80EE806AD2EDDF
:105760005D5A26EE257ABDEEC77A17EE103A1E2B4B
:10577000A8BF1E2323EAE37307EE103A02EB83016E
:1057800091ED5E5ADFED0F7AD2ED5C4AB8EEC77A42
:10579000D1ED5F6A35EE670AA7EE646A76EEC57AE8
:1057A00067EE867AA5EEA70A7047C0EE806A92ED92
:1057B0005D6A92ED5C5A9FED030A26E72C0D0034DA
:1057C000DB0FC9BFDB0FC93FDB0F4940B5EEC00A95
:1057D000F1EE10FA254A25D4D2ED7F5A60EE257AF3
:1057E000FDEEE77A17EE903A1E2BA8BF1E2323EAA0
:1057F000E37307EE903A02EB8301D1ED806AB8EED5
:10580000E77A92ED7E5A91ED816AF0EE407AE7EE0A
:10581000457A36EE667A67EE277AE5EEA76AB0EE4D
:10582000660A704792ED7F6A60EE467AFDEEE77A8F
:1058300017EE903A1E2BA8BF1E2323EAE37307EE50
:10584000103A02EB8301D1ED807AD2ED7E5AB8EEA8
:10585000C77AD1ED816A97EE650A36EEE77A27EED0
:10586000007AE6EE077AB1EE670A70472C0D003435
:10587000B5EEC00ADFED0B7ABEEE006AF1EE10FA6B
:10588000B6EE007A60EE277A27FE067A77EE877A00
:10589000FDEEE77ADFED046AF8EEE77AA7EEE60AB6
:1058A000704700BF83F9223EDB0FC940B4EEE01A17
:1058B000F1EE10FA04DB31EE400A80FE200A704758
:1058C00031EE000A80FE600A704700BFD0ED007A1A
:1058D00090ED017AF4EEC77AF1EE10FAD0ED026A9B
:1058E0000ADBF4EEE67AF1EE10FA1AD840F2012063
:1058F000174B0B6010607047B4EEE67AF1EE10FAC9
:1059000005D84FF4817318460B6010607047F4EEB1
:10591000E67AF1EE10FA14DD0E4B18460B601060BB
:105920007047B4EEE67AF1EE10FA04DD0A4B184641
:105930000B60106070474FF4813318460B601060A5
:10594000704740F2012302480B601060704700BFAF
:10595000020001000100020000010200C368002BE8
:1059600018BF013BC360704700230360436083603E
:10597000C36003614361704790ED005AD0ED015A56
:1059800090ED026AD0ED036A90ED047AD0ED057ACD
:10599000F7EE004A75EE805A35EE245AA0EE006A02
:1059A000E0EE206A37EE207AE0EEA07A80ED005A31
:1059B000C0ED015A80ED026AC0ED036A80ED047A01
:1059C000C0ED057A704700BFD0ED015AD0ED047AE2
:1059D00090ED006A90ED054AD0ED034A27EEE75AB4
:1059E00027EEE57AD0ED023A65EEE56AA6EE247A76
:1059F000E6EE236AA6EE045AC7EE264A26EE854A4C
:105A000080ED075AE5EEE47AB1EEC45AC0ED066ABD
:105A100080ED087AC7EE056A87EE867AC0ED094AFE
:105A2000C0ED0B6A80ED0A7A704700BF38B5184C9C
:105A3000184D94ED026AD5ED027AB5F8383367EE69
:105A4000867A07EE103ADFED146AB8EEC77A67EE91
:105A5000A67AC7EE876A04F1200005F54E71C4ED01
:105A6000156AFEF70DFE04F1200004F12801FEF78F
:105A700005FED5EDD37A9FED090AD5ED160A04F19E
:105A8000100080EE270ABDE83840FFF7D7BB00BF03
:105A9000E42500342C0D0034DB0F4940920A863F88
:105AA00002234FF0FF324FF07E5110B5084C9FEDAE
:105AB000090A04F12000C4E900332165E260FEF721
:105AC0000DFE04F11000BDE81040FFF7C5BB00BF9C
:105AD000E42500340000000010B52E4C2368002B94
